{
  "contractName": "TodoList",
  "abi": [
    {
      "inputs": [
        {
          "internalType": "string",
          "name": "_task",
          "type": "string"
        }
      ],
      "name": "addTask",
      "outputs": [
        {
          "internalType": "string",
          "name": "",
          "type": "string"
        }
      ],
      "stateMutability": "nonpayable",
      "type": "function"
    },
    {
      "inputs": [
        {
          "internalType": "uint256",
          "name": "_taskIndex",
          "type": "uint256"
        }
      ],
      "name": "getTask",
      "outputs": [
        {
          "components": [
            {
              "internalType": "string",
              "name": "task",
              "type": "string"
            },
            {
              "internalType": "bool",
              "name": "isDone",
              "type": "bool"
            }
          ],
          "internalType": "struct TodoList.Task",
          "name": "",
          "type": "tuple"
        }
      ],
      "stateMutability": "view",
      "type": "function",
      "constant": true
    },
    {
      "inputs": [
        {
          "internalType": "uint256",
          "name": "_taskIndex",
          "type": "uint256"
        },
        {
          "internalType": "bool",
          "name": "_status",
          "type": "bool"
        }
      ],
      "name": "updateStatus",
      "outputs": [],
      "stateMutability": "nonpayable",
      "type": "function"
    },
    {
      "inputs": [
        {
          "internalType": "uint256",
          "name": "_taskIndex",
          "type": "uint256"
        }
      ],
      "name": "deleteTask",
      "outputs": [],
      "stateMutability": "nonpayable",
      "type": "function"
    },
    {
      "inputs": [],
      "name": "getTaskCount",
      "outputs": [
        {
          "internalType": "uint256",
          "name": "",
          "type": "uint256"
        }
      ],
      "stateMutability": "view",
      "type": "function",
      "constant": true
    }
  ],
  "bytecode": "0x608060405234801561001057600080fd5b50610cf7806100206000396000f3fe608060405234801561001057600080fd5b50600436106100575760003560e01c80631d65e77e1461005c578063387008c21461008c578063560f3192146100a857806367238562146100c4578063c17a340e146100f5575b600080fd5b61007660048036038101906100719190610809565b610113565b6040516100839190610927565b60405180910390f35b6100a660048036038101906100a19190610975565b61023e565b005b6100c260048036038101906100bd9190610809565b6102bb565b005b6100de60048036038101906100d99190610a1a565b6104e2565b6040516100ec929190610ab4565b60405180910390f35b6100fd6105f4565b60405161010a9190610ae7565b60405180910390f35b61011b61063d565b60008060003373ffffffffffffffffffffffffffffffffffffffff1673ffffffffffffffffffffffffffffffffffffffff168152602001908152602001600020838154811061016d5761016c610b02565b5b906000526020600020906002020190508060405180604001604052908160008201805461019990610b60565b80601f01602080910402602001604051908101604052809291908181526020018280546101c590610b60565b80156102125780601f106101e757610100808354040283529160200191610212565b820191906000526020600020905b8154815290600101906020018083116101f557829003601f168201915b505050505081526020016001820160009054906101000a900460ff161515151581525050915050919050565b806000803373ffffffffffffffffffffffffffffffffffffffff1673ffffffffffffffffffffffffffffffffffffffff168152602001908152602001600020838154811061028f5761028e610b02565b5b906000526020600020906002020160010160006101000a81548160ff0219169083151502179055505050565b60008060003373ffffffffffffffffffffffffffffffffffffffff1673ffffffffffffffffffffffffffffffffffffffff16815260200190815260200160002080549050905080821061030d57600080fd5b60008290505b6001826103209190610bc0565b811015610452576000803373ffffffffffffffffffffffffffffffffffffffff1673ffffffffffffffffffffffffffffffffffffffff1681526020019081526020016000206001826103729190610bf4565b8154811061038357610382610b02565b5b90600052602060002090600202016000803373ffffffffffffffffffffffffffffffffffffffff1673ffffffffffffffffffffffffffffffffffffffff16815260200190815260200160002082815481106103e1576103e0610b02565b5b9060005260206000209060020201600082018160000190805461040390610b60565b61040e929190610659565b506001820160009054906101000a900460ff168160010160006101000a81548160ff021916908315150217905550905050808061044a90610c4a565b915050610313565b506000803373ffffffffffffffffffffffffffffffffffffffff1673ffffffffffffffffffffffffffffffffffffffff1681526020019081526020016000208054806104a1576104a0610c92565b5b6001900381819060005260206000209060020201600080820160006104c691906106e6565b6001820160006101000a81549060ff0219169055505090555050565b3660008060003373ffffffffffffffffffffffffffffffffffffffff1673ffffffffffffffffffffffffffffffffffffffff168152602001908152602001600020604051806040016040528086868080601f016020809104026020016040519081016040528093929190818152602001838380828437600081840152601f19601f82011690508083019250505050505050815260200160001515815250908060018154018082558091505060019003906000526020600020906002020160009091909190915060008201518160000190805190602001906105c4929190610726565b5060208201518160010160006101000a81548160ff02191690831515021790555050508383915091509250929050565b60008060003373ffffffffffffffffffffffffffffffffffffffff1673ffffffffffffffffffffffffffffffffffffffff16815260200190815260200160002080549050905090565b6040518060400160405280606081526020016000151581525090565b82805461066590610b60565b90600052602060002090601f01602090048101928261068757600085556106d5565b82601f1061069857805485556106d5565b828001600101855582156106d557600052602060002091601f016020900482015b828111156106d45782548255916001019190600101906106b9565b5b5090506106e291906107ac565b5090565b5080546106f290610b60565b6000825580601f106107045750610723565b601f01602090049060005260206000209081019061072291906107ac565b5b50565b82805461073290610b60565b90600052602060002090601f016020900481019282610754576000855561079b565b82601f1061076d57805160ff191683800117855561079b565b8280016001018555821561079b579182015b8281111561079a57825182559160200191906001019061077f565b5b5090506107a891906107ac565b5090565b5b808211156107c55760008160009055506001016107ad565b5090565b600080fd5b600080fd5b6000819050919050565b6107e6816107d3565b81146107f157600080fd5b50565b600081359050610803816107dd565b92915050565b60006020828403121561081f5761081e6107c9565b5b600061082d848285016107f4565b91505092915050565b600081519050919050565b600082825260208201905092915050565b60005b83811015610870578082015181840152602081019050610855565b8381111561087f576000848401525b50505050565b6000601f19601f8301169050919050565b60006108a182610836565b6108ab8185610841565b93506108bb818560208601610852565b6108c481610885565b840191505092915050565b60008115159050919050565b6108e4816108cf565b82525050565b600060408301600083015184820360008601526109078282610896565b915050602083015161091c60208601826108db565b508091505092915050565b6000602082019050818103600083015261094181846108ea565b905092915050565b610952816108cf565b811461095d57600080fd5b50565b60008135905061096f81610949565b92915050565b6000806040838503121561098c5761098b6107c9565b5b600061099a858286016107f4565b92505060206109ab85828601610960565b9150509250929050565b600080fd5b600080fd5b600080fd5b60008083601f8401126109da576109d96109b5565b5b8235905067ffffffffffffffff8111156109f7576109f66109ba565b5b602083019150836001820283011115610a1357610a126109bf565b5b9250929050565b60008060208385031215610a3157610a306107c9565b5b600083013567ffffffffffffffff811115610a4f57610a4e6107ce565b5b610a5b858286016109c4565b92509250509250929050565b600082825260208201905092915050565b82818337600083830152505050565b6000610a938385610a67565b9350610aa0838584610a78565b610aa983610885565b840190509392505050565b60006020820190508181036000830152610acf818486610a87565b90509392505050565b610ae1816107d3565b82525050565b6000602082019050610afc6000830184610ad8565b92915050565b7f4e487b7100000000000000000000000000000000000000000000000000000000600052603260045260246000fd5b7f4e487b7100000000000000000000000000000000000000000000000000000000600052602260045260246000fd5b60006002820490506001821680610b7857607f821691505b602082108103610b8b57610b8a610b31565b5b50919050565b7f4e487b7100000000000000000000000000000000000000000000000000000000600052601160045260246000fd5b6000610bcb826107d3565b9150610bd6836107d3565b925082821015610be957610be8610b91565b5b828203905092915050565b6000610bff826107d3565b9150610c0a836107d3565b9250827fffffffffffffffffffffffffffffffffffffffffffffffffffffffffffffffff03821115610c3f57610c3e610b91565b5b828201905092915050565b6000610c55826107d3565b91507fffffffffffffffffffffffffffffffffffffffffffffffffffffffffffffffff8203610c8757610c86610b91565b5b600182019050919050565b7f4e487b7100000000000000000000000000000000000000000000000000000000600052603160045260246000fdfea26469706673582212209a91b8449622356525f4c19403edc158b3d8f93008588c0b4fcd851b10677f7964736f6c634300080d0033",
  "immutableReferences": {},
  "source": "// SPDX-License-Identifier: GPL-3.0 \npragma solidity >=0.4.22 <0.9.0; \ncontract TodoList{\n\t\n\tstruct Task\n\t{\n\t\tstring task;\n\t\tbool isDone;\n\t}\n\n\tmapping (address => Task[]) private Users;\n\t\t\n\t// function to add a task\n\tfunction addTask(string calldata _task) external returns (string calldata)\n\t{\n\t\tUsers[msg.sender].push(Task({\n\t\t\ttask:_task,\n\t\t\tisDone:false\n\t\t}));\n\t\treturn _task;\n\t}\n\n\t// function to get details of a task\n\tfunction getTask(uint _taskIndex) external view returns (Task memory)\n\t{\n\t\tTask storage task = Users[msg.sender][_taskIndex];\n\t\treturn task;\n\t}\n\n\t// function to update status of a task\n\tfunction updateStatus(uint256 _taskIndex,bool _status) external\n\t{\n\t\tUsers[msg.sender][_taskIndex].isDone = _status;\n\t}\n\n\t// function to delete a task\n\tfunction deleteTask(uint256 _taskIndex) external\n\t{\n\t\t// delete Users[msg.sender][_taskIndex];\n\n\t\tuint length = Users[msg.sender].length;\n\t\trequire(_taskIndex < length);\n\t\t\n\t\tfor(uint i = _taskIndex; i< length - 1; i++) {\n\t\t\t\n\t\t\tUsers[msg.sender][i] = Users[msg.sender][i+1]; \n\t\t}\n\t\tUsers[msg.sender].pop();\n\n\t\t// delete Users[msg.sender][length-1];\n\n\t}\n\n\t// function to get task count.\n\tfunction getTaskCount() external view returns (uint256)\n\t{\n\t\treturn Users[msg.sender].length;\n\t}\n}\n",
  "sourcePath": "/home/appinventiv/Sessions/eth-todo-demo/contracts/TodoList.sol",
  "compiler": {
    "name": "solc",
    "version": "0.8.13+commit.abaa5c0e.Emscripten.clang"
  },
  "schemaVersion": "3.4.16",
  "updatedAt": "2024-01-12T07:24:25.050Z",
  "networkType": "ethereum",
  "devdoc": {
    "kind": "dev",
    "methods": {},
    "version": 1
  },
  "userdoc": {
    "kind": "user",
    "methods": {},
    "version": 1
  }
}